:100000000C9463000C948B000C948B000C948B006C
:100010000C948B000C948B000C948B000C948B0034
:100020000C948B000C948B000C948B000C948B0024
:100030000C948B000C948B000C948B000C948B0014
:100040000C9420030C948B000C949A040C94E804F8
:100050000C948B000C948B000C948B000C948B00F4
:100060000C948B000C948B000000000024002700EF
:100070002A0000000000250028002B0000000000DE
:1000800023002600290004040404040404040202DA
:100090000202020203030303030301020408102007
:1000A0004080010204081020010204081020000012
:1000B0000007000201000003040600000000000029
:1000C00000008D00540611241FBECFEFD8E0DEBF24
:1000D000CDBF11E0A0E0B1E0E8E5FEE002C0059090
:1000E0000D92AA36B107D9F712E0AAE6B1E001C035
:1000F0001D92A233B107E1F710E0C6ECD0E004C0D6
:100100002297FE010E942607C23CD107C9F70E9430
:10011000AA060C942A070C940000CF92EF920F933A
:100120008AE691E069E04AE025E006E057E0E52E46
:1001300038E0C32E0E94E7020F91EF90CF90089510
:100140008AE691E00E94290280E192E00E94DB05AC
:100150008E31910579F48091460161E00E94450459
:100160008091480161E00E9445048AE691E060E0E8
:1001700071E00CC08A309105F1F48091480161E092
:100180000E9445048AE691E062E271E00E94FF0667
:100190008AE691E060E041E00E94FA018AE691E09F
:1001A00060E171E00E94FF0664E670E080E090E0AC
:1001B0000E94680334C04497B1F48091460161E025
:1001C0000E9445048AE691E060E071E00E94FF062B
:1001D0008AE691E060E041E00E94FA018AE691E05F
:1001E00063E371E0DFCF8091460160E00E94450447
:1001F0008091480160E00E9445048AE691E062E255
:1002000071E00E94FF068AE691E060E041E00E9412
:10021000FA018AE691E063E371E00E94FF0664E67A
:1002200070E080E090E00E94680308958AE691E023
:1002300064E142E020E00E94310280E192E040E887
:1002400055E260E070E00E9423058091460161E084
:100250000E9406048091480161E00E94060408950E
:100260000F931F938C01FC01868160E00E9445047E
:1002700081E090E00E94C103F801868161E00E9464
:10028000450481E090E00E94C103F801868160E0AE
:100290000E94450484E690E00E94C1031F910F91E3
:1002A0000895CF92DF92EF92FF920F931F93CF9317
:1002B000DF93D82EC92E282F392FC9018C01C0E019
:1002C000D0E0E62EFF24F801878161E00E94060459
:1002D000B7010C2E02C0759567950A94E2F761701C
:1002E000F80187810E94450421960F5F1F4FC83097
:1002F000D10549F78D2D9C2D0E943001DF91CF91C2
:100300001F910F91FF90EF90DF90CF900895CF92C3
:10031000DF92EF92FF920F931F93CF93DF93D82E2C
:10032000C92E282F392FC9018C01C0E0D0E0E62E5C
:10033000FF24F801878161E00E940604B7010C2EBA
:1003400002C0759567950A94E2F76170F80187819C
:100350000E94450421960F5F1F4FC430D10549F715
:100360008D2D9C2D0E943001DF91CF911F910F9117
:10037000FF90EF90DF90CF9008951F93CF93DF937E
:10038000EC01162F8C81642F0E9445048D818F3FD4
:1003900019F060E00E9445048F8584FF05C0CE01FE
:1003A000612F0E9451010EC0612F70E084E07595AD
:1003B00067958A95E1F7CE010E948701CE01612FF2
:1003C0000E948701DF91CF911F91089541E00E9423
:1003D000BD0181E090E0089540E00E94BD010895D4
:1003E000FC016089862F8460808B6C60CF010E9445
:1003F000EC010895DF93CF93CDB7DEB728970FB602
:10040000F894DEBF0FBECDBF9C01FE013196A2E580
:10041000B1E088E00D9001928150E1F7F901838904
:10042000481710F0482F4150E42FF0E0EE0FFF1F67
:10043000EC0FFD1F8181680F6068C9010E94EC010B
:1004400028960FB6F894DEBF0FBECDBFCF91DF91D7
:10045000089561E00E94EC0180ED97E00E94C103E5
:100460000895CF93DF93EC01423018F08F858860B8
:100470008F874B8B1C8A222329F0413019F48F85FA
:1004800084608F8780E593EC0E94C1038C8160E0DB
:100490000E9445048E8160E00E9445048D818F3F5B
:1004A00019F060E00E9445046F8564FD1DC0CE0117
:1004B00063E00E94870184E991E10E94C103CE01BB
:1004C00063E00E94870184E991E10E94C103CE01AB
:1004D00063E00E94870186E990E00E94C103CE019B
:1004E00062E00E94870116C06062CE010E94EC01AA
:1004F00084E991E10E94C1036F856062CE010E9490
:10050000EC0186E990E00E94C1036F856062CE0134
:100510000E94EC016F856062CE010E94EC0184E0D4
:10052000888BCE010E94F001CE010E94290282E058
:10053000898BCE0166E00E94EC01DF91CF91089596
:100540006F927F928F92AF92CF92EF920F931F9301
:10055000DF93CF93CDB7DEB73C01162F842FF30185
:10056000448325830683E782C086A18682869D8593
:1005700093879E8594879F8595879889968761E064
:100580000E940604F30185818F3F19F061E00E940B
:100590000604F301868161E00E940604112319F02C
:1005A000F301178603C080E1F3018787C30160E18F
:1005B00041E020E00E943102CF91DF911F910F9125
:1005C000EF90CF90AF908F907F906F9008958F9223
:1005D000AF92CF92EF920F931F93CF93DF93DC01F3
:1005E000362F542F722F102FAE2C8C2C13961C925A
:1005F0001E9212978EE491E011969C938E9300D0F8
:1006000000D0EDB7FEB73196CDB7DEB719821182B3
:1006100012821382CD0161E0432F2FEF052FE72EC9
:10062000C12E0E94A0020F900F900F900F90DF91AB
:10063000CF911F910F91EF90CF90AF908F90089531
:100640001F920F920FB60F9211242F933F938F9307
:100650009F93AF93BF938091830190918401A09168
:100660008501B0918601309187010196A11DB11DD0
:10067000232F2D5F2D3720F02D570196A11DB11D81
:10068000209387018093830190938401A093850137
:10069000B093860180917F0190918001A0918101AA
:1006A000B09182010196A11DB11D80937F019093AD
:1006B0008001A0938101B0938201BF91AF919F917E
:1006C0008F913F912F910F900FBE0F901F90189513
:1006D0009B01AC017FB7F89480917F0190918001DC
:1006E000A0918101B091820166B5A89B05C06F3FC2
:1006F00019F00196A11DB11D7FBFBA2FA92F982F08
:100700008827860F911DA11DB11D62E0880F991FDA
:10071000AA1FBB1F6A95D1F7BC012DC0FFB7F89483
:1007200080917F0190918001A0918101B09182011F
:10073000E6B5A89B05C0EF3F19F00196A11DB11DBC
:10074000FFBFBA2FA92F982F88278E0F911DA11DAB
:10075000B11DE2E0880F991FAA1FBB1FEA95D1F7D0
:10076000861B970B885E9340C8F221503040404072
:10077000504068517C4F211531054105510571F6F6
:100780000895019739F0880F991F880F991F0297D4
:100790000197F1F70895789484B5826084BD84B59B
:1007A000816084BD85B5826085BD85B5816085BD6C
:1007B000EEE6F0E0808181608083E1E8F0E0108285
:1007C000808182608083808181608083E0E8F0E0C6
:1007D000808181608083E1EBF0E0808184608083B0
:1007E000E0EBF0E0808181608083EAE7F0E08081E7
:1007F0008460808380818260808380818160808347
:100800008081806880831092C1000895CF93DF9328
:10081000482F50E0CA0186569F4FFC0134914A5739
:100820005F4FFA018491882369F190E0880F991F46
:10083000FC01E859FF4FA591B491FC01EE58FF4F20
:10084000C591D491662351F42FB7F8948C91932FCE
:10085000909589238C93888189230BC0623061F441
:100860002FB7F8948C91932F909589238C9388813E
:10087000832B88832FBF06C09FB7F8948C91832B5E
:100880008C939FBFDF91CF910895482F50E0CA010C
:1008900082559F4FFC012491CA0186569F4FFC014F
:1008A00094914A575F4FFA013491332309F440C0C1
:1008B000222351F1233071F0243028F42130A1F0AB
:1008C000223011F514C02630B1F02730C1F02430A9
:1008D000D9F404C0809180008F7703C0809180009C
:1008E0008F7D8093800010C084B58F7702C084B55F
:1008F0008F7D84BD09C08091B0008F7703C0809147
:10090000B0008F7D8093B000E32FF0E0EE0FFF1F6B
:10091000EE58FF4FA591B4912FB7F894662321F4B8
:100920008C919095892302C08C91892B8C932FBF39
:10093000089508951F920F920FB60F9211242F93CE
:100940003F934F938F939F93EF93FF938091C000BA
:1009500082FD1DC04091C6002091C8013091C9019F
:100960002F5F3F4F2F7330708091CA019091CB0160
:100970002817390771F0E091C801F091C901E857D3
:10098000FE4F40833093C9012093C80102C080917B
:10099000C600FF91EF919F918F914F913F912F91C1
:1009A0000F900FBE0F901F901895E0911C02F091D0
:1009B0001D02E05CFF4F8191919120813181821B6A
:1009C000930B8F739070892B11F00E9499040895F6
:1009D0001F920F920FB60F9211242F933F938F9374
:1009E0009F93EF93FF9320910C0230910D02809121
:1009F0000E0290910F022817390731F48091C1003F
:100A00008F7D8093C10014C0E0910E02F0910F021F
:100A1000E453FE4F208180910E0290910F020196C7
:100A20008F73907090930F0280930E022093C600F4
:100A3000FF91EF919F918F913F912F910F900FBE5A
:100A40000F901F901895AF92BF92DF92EF92FF9296
:100A50000F931F93CF93DF93EC017A018B01DD2479
:100A6000403081EE580780E0680780E0780711F099
:100A7000DD24D39491E0A92EB12CEC89FD89DD20F1
:100A800069F0C50108A002C0880F991F0A94E2F717
:100A9000808360E079E08DE390E005C0108260E83B
:100AA00074E88EE190E0A80197010E9402072150AE
:100AB000304040405040569547953795279580E106
:100AC0002030380720F0DD2011F0DD24D6CFE88972
:100AD000F9893083EA89FB89208319A2EE89FF898D
:100AE000408121E030E0C9010C8C02C0880F991FC1
:100AF0000A94E2F7482B4083EE89FF894081C901BF
:100B00000D8C02C0880F991F0A94E2F7482B40838E
:100B1000EE89FF894081C9010E8C02C0880F991FA0
:100B20000A94E2F7482B4083EE89FF8980810F8C7D
:100B300002C0220F331F0A94E2F720952823208356
:100B4000DF91CF911F910F91FF90EF90DF90BF90B9
:100B5000AF900895DC011C96ED91FC911D97E05C2F
:100B6000FF4F2191319180819181281B390B2F7387
:100B70003070C9010895DC011C96ED91FC911D9720
:100B8000E05CFF4F20813181E054F040DF01AE5B3B
:100B9000BF4F8D919C9111972817390719F42FEFAA
:100BA0003FEF07C08D919C91E80FF91F8081282F9E
:100BB00030E0C9010895DC011C96ED91FC911D9770
:100BC000E05CFF4F20813181E054F040DF01AE5BFB
:100BD000BF4F8D919C9111972817390719F42FEF6A
:100BE0003FEF10C08D919C911197E80FF91F208164
:100BF0008D919C91119701968F73907011969C9393
:100C00008E9330E0C9010895DC0191968C91919703
:100C1000882339F05496ED91FC915597808186FF99
:100C2000F9CF91961C920895CF93DF93EC01EE8556
:100C3000FF85E05CFF4F20813181E054F0402F5F61
:100C40003F4F2F733070DF01AE5BBF4F8D919C9192
:100C5000119728173907D1F3E05CFF4F808191810C
:100C6000E054F040E80FF91F6083EE85FF85E05CFB
:100C7000FF4F31832083EE89FF89208181E090E05E
:100C80000F8C02C0880F991F0A94E2F7282B20834B
:100C900081E089A3EC89FD8980818064808381E083
:100CA00090E0DF91CF9108951092130210921202FA
:100CB00088EE93E0A0E0B0E08093140290931502D8
:100CC000A0931602B09317028EE591E09093110263
:100CD0008093100288E891E090931D0280931C029B
:100CE0008CEC91E090931F0280931E0285EC90E0C3
:100CF000909321028093200284EC90E09093230251
:100D00008093220280EC90E090932502809324024D
:100D100081EC90E0909327028093260282EC90E091
:100D2000909329028093280286EC90E090932B0206
:100D300080932A0284E080932C0283E080932D022A
:100D400087E080932E0285E080932F0281E08093DC
:100D500030020895CF93DF930E94CB030E941601C7
:100D6000C5EDD4E00E94A0002097E1F30E94D504D5
:100D7000F9CFCF92DF92EF92FF920F931F93CF9311
:100D8000DF937C016B018A01C0E0D0E00FC0D60187
:100D90006D916D01D701ED91FC910190F081E02DF5
:100DA000C7010995C80FD91F015010400115110541
:100DB00071F7CE01DF91CF911F910F91FF90EF90CE
:100DC000DF90CF900895CF93DF93EC01611571050B
:100DD00019F420E030E00FC0DB010D900020E9F7AE
:100DE0001197A61BB70BE881F9810280F381E02DF2
:100DF000AD0109959C01C901DF91CF9108950E9431
:100E0000E3060895A1E21A2EAA1BBB1BFD010DC02B
:100E1000AA1FBB1FEE1FFF1FA217B307E407F507AA
:100E200020F0A21BB30BE40BF50B661F771F881F86
:100E3000991F1A9469F760957095809590959B011C
:100E4000AC01BD01CF010895EE0FFF1F0590F49195
:080E5000E02D0994F894FFCF96
:100E580046616E205377697463686564204F4E005D
:100E680042756C6273205377697463686564204FB8
:100E78004E0046616E205377697463686564204F3D
:100E880046460042756C62732053776974636865DF
:100E980064204F4646000200040000000000E601FE
:100EA800B9060000400014005400000000001406B9
:0A0EB800B906AA05DB05BB05040618
:00000001FF
