:100000000C9463000C948B000C948B000C948B006C
:100010000C948B000C948B000C948B000C948B0034
:100020000C948B000C948B000C948B000C948B0024
:100030000C948B000C948B000C948B000C948B0014
:100040000C94EB020C948B000C94B8040C940605F1
:100050000C948B000C948B000C948B000C948B00F4
:100060000C948B000C948B000000000024002700EF
:100070002A0000000000250028002B0000000000DE
:1000800023002600290004040404040404040202DA
:100090000202020203030303030301020408102007
:1000A0004080010204081020010204081020000012
:1000B0000007000201000003040600000000000029
:1000C00000008D00720611241FBECFEFD8E0DEBF06
:1000D000CDBF11E0A0E0B1E0E4E9FEE002C0059090
:1000E0000D92A634B107D9F712E0A6E4B1E001C041
:1000F0001D92AE30B107E1F710E0C6ECD0E004C0CD
:100100002297FE010E944407C23CD107C9F70E9412
:10011000C8060C9448070C940000CF92EF920F93FE
:1001200086E491E06AE049E028E007E056E0E52E49
:1001300035E0C32E0E94B2020F91EF90CF90089548
:100140000F931F9306E411E0C80160E142E020E054
:100150000E94FC018CEE91E040E855E260E070E026
:100160000E9441058091220162E00E94D1038091AA
:10017000240162E00E94D103C80160E071E00E94A6
:100180001D07C80160E041E00E94C501C80162E1AD
:1001900071E00E941D071F910F9108958091240125
:1001A0000E946404892B01F5809122010E9464045D
:1001B000892BD1F48CEE91E06EE10DC08CEE91E0D4
:1001C0006AE009C0809124010E946404892B29F40B
:1001D0008CEE91E064E10E94320664E670E080E01B
:1001E00090E00E9433030895809122010E946404EC
:1001F000892B41F7E3CF0F931F938C01FC0186817C
:1002000060E00E94100481E090E00E948C03F801FD
:10021000868161E00E94100481E090E00E948C03DE
:10022000F801868160E00E94100484E690E00E945C
:100230008C031F910F910895CF92DF92EF92FF925E
:100240000F931F93CF93DF93D82EC92E282F392FCA
:10025000C9018C01C0E0D0E0E62EFF24F8018781BF
:1002600061E00E94D103B7010C2E02C0759567951D
:100270000A94E2F76170F80187810E9410042196C8
:100280000F5F1F4FC830D10549F78D2D9C2D0E945F
:10029000FB00DF91CF911F910F91FF90EF90DF90C6
:1002A000CF900895CF92DF92EF92FF920F931F931A
:1002B000CF93DF93D82EC92E282F392FC9018C0157
:1002C000C0E0D0E0E62EFF24F801878161E00E94C3
:1002D000D103B7010C2E02C0759567950A94E2F719
:1002E0006170F80187810E94100421960F5F1F4FF3
:1002F000C430D10549F78D2D9C2D0E94FB00DF9164
:10030000CF911F910F91FF90EF90DF90CF900895C4
:100310001F93CF93DF93EC01162F8C81642F0E94E3
:1003200010048D818F3F19F060E00E9410048F85CA
:1003300084FF05C0CE01612F0E941C010EC0612FF9
:1003400070E084E0759567958A95E1F7CE010E948B
:100350005201CE01612F0E945201DF91CF911F9176
:10036000089541E00E94880181E090E0089540E016
:100370000E9488010895FC016089862F8460808B2B
:100380006C60CF010E94B7010895DF93CF93CDB782
:10039000DEB728970FB6F894DEBF0FBECDBF9C0125
:1003A000FE013196AEE2B1E088E00D9001928150FD
:1003B000E1F7F9018389481710F0482F4150E42FE5
:1003C000F0E0EE0FFF1FEC0FFD1F8181680F6068EA
:1003D000C9010E94B70128960FB6F894DEBF0FBE80
:1003E000CDBFCF91DF91089561E00E94B70180ED0C
:1003F00097E00E948C030895CF93DF93EC01423085
:1004000018F08F8588608F874B8B1C8A222329F0F8
:10041000413019F48F8584608F8780E593EC0E94CA
:100420008C038C8160E00E9410048E8160E00E9449
:1004300010048D818F3F19F060E00E9410046F85D9
:1004400064FD1DC0CE0163E00E94520184E991E188
:100450000E948C03CE0163E00E94520184E991E185
:100460000E948C03CE0163E00E94520186E990E075
:100470000E948C03CE0162E00E94520116C06062AD
:10048000CE010E94B70184E991E10E948C036F853F
:100490006062CE010E94B70186E990E00E948C0361
:1004A0006F856062CE010E94B7016F856062CE01E8
:1004B0000E94B70184E0888BCE010E94BB01CE016F
:1004C0000E94F40182E0898BCE0166E00E94B701B0
:1004D000DF91CF9108956F927F928F92AF92CF92DA
:1004E000EF920F931F93DF93CF93CDB7DEB73C010D
:1004F000162F842FF301448325830683E782C08669
:10050000A18682869D8593879E8594879F85958702
:100510009889968761E00E94D103F30185818F3F1E
:1005200019F061E00E94D103F301868161E00E942D
:10053000D103112319F0F301178603C080E1F30101
:100540008787C30160E141E020E00E94FC01CF9178
:10055000DF911F910F91EF90CF90AF908F907F9090
:100560006F9008958F92AF92CF92EF920F931F9357
:10057000CF93DF93DC01362F542F722F102FAE2C28
:100580008C2C13961C921E9212978AE291E011967F
:100590009C938E9300D000D0EDB7FEB73196CDB7C7
:1005A000DEB71982118212821382CD0161E0432FDE
:1005B0002FEF052FE72EC12E0E946B020F900F9098
:1005C0000F900F90DF91CF911F910F91EF90CF90EF
:1005D000AF908F9008951F920F920FB60F92112433
:1005E0002F933F938F939F93AF93BF9380915F011E
:1005F00090916001A0916101B0916201309163011D
:100600000196A11DB11D232F2D5F2D3720F02D57F1
:100610000196A11DB11D2093630180935F0190930A
:100620006001A0936101B093620180915B019091A0
:100630005C01A0915D01B0915E010196A11DB11D0B
:1006400080935B0190935C01A0935D01B0935E0188
:10065000BF91AF919F918F913F912F910F900FBEBE
:100660000F901F9018959B01AC017FB7F894809173
:100670005B0190915C01A0915D01B0915E0166B556
:10068000A89B05C06F3F19F00196A11DB11D7FBF4A
:10069000BA2FA92F982F8827860F911DA11DB11D54
:1006A00062E0880F991FAA1FBB1F6A95D1F7BC0192
:1006B0002DC0FFB7F89480915B0190915C01A091EF
:1006C0005D01B0915E01E6B5A89B05C0EF3F19F052
:1006D0000196A11DB11DFFBFBA2FA92F982F882702
:1006E0008E0F911DA11DB11DE2E0880F991FAA1F59
:1006F000BB1FEA95D1F7861B970B885E9340C8F223
:10070000215030404040504068517C4F2115310508
:100710004105510571F60895019739F0880F991F29
:10072000880F991F02970197F1F70895789484B57F
:10073000826084BD84B5816084BD85B5826085BDDD
:1007400085B5816085BDEEE6F0E0808181608083C3
:10075000E1E8F0E0108280818260808380818160A6
:100760008083E0E8F0E0808181608083E1EBF0E06D
:10077000808184608083E0EBF0E080818160808311
:10078000EAE7F0E0808184608083808182608083FA
:100790008081816080838081806880831092C10025
:1007A0000895CF93DF93482F50E0CA0186569F4F9C
:1007B000FC0134914A575F4FFA018491882369F113
:1007C00090E0880F991FFC01E859FF4FA591B49163
:1007D000FC01EE58FF4FC591D491662351F42FB719
:1007E000F8948C91932F909589238C9388818923F9
:1007F0000BC0623061F42FB7F8948C91932F9095D1
:1008000089238C938881832B88832FBF06C09FB751
:10081000F8948C91832B8C939FBFDF91CF91089597
:10082000482F50E0CA0182559F4FFC012491CA0114
:1008300086569F4FFC0194914A575F4FFA013491BD
:10084000332309F440C0222351F1233071F02430C6
:1008500028F42130A1F0223011F514C02630B1F077
:100860002730C1F02430D9F404C0809180008F7704
:1008700003C0809180008F7D8093800010C084B57C
:100880008F7702C084B58F7D84BD09C08091B00090
:100890008F7703C08091B0008F7D8093B000E32FED
:1008A000F0E0EE0FFF1FEE58FF4FA591B4912FB768
:1008B000F894662321F48C919095892302C08C9141
:1008C000892B8C932FBF0895682F70E0CB01825540
:1008D0009F4FFC012491CB0186569F4FFC01449110
:1008E0006A577F4FFB019491992319F420E030E07F
:1008F0003CC0222351F1233071F0243028F4213000
:10090000A1F0223011F514C02630B1F02730C1F02B
:100910002430D9F404C0809180008F7703C0809187
:1009200080008F7D8093800010C084B58F7702C0D7
:1009300084B58F7D84BD09C08091B0008F7703C0DE
:100940008091B0008F7D8093B000892F90E0880F58
:10095000991F84589F4FFC01A591B4918C9120E080
:1009600030E0842311F021E030E0C90108950895BA
:100970001F920F920FB60F9211242F933F934F9314
:100980008F939F93EF93FF938091C00082FD1DC0D2
:100990004091C6002091A4013091A5012F5F3F4FE7
:1009A0002F7330708091A6019091A7012817390705
:1009B00071F0E091A401F091A501EC59FE4F408344
:1009C0003093A5012093A40102C08091C600FF913D
:1009D000EF919F918F914F913F912F910F900FBE6B
:1009E0000F901F901895E091F801F091F901E05CEB
:1009F000FF4F8191919120813181821B930B8F73E5
:100A00009070892B11F00E94B70408951F920F92E5
:100A10000FB60F9211242F933F938F939F93EF93D1
:100A2000FF932091E8013091E9018091EA019091D2
:100A3000EB012817390731F48091C1008F7D809335
:100A4000C10014C0E091EA01F091EB01E855FE4FBE
:100A500020818091EA019091EB0101968F73907053
:100A60009093EB018093EA012093C600FF91EF91F0
:100A70009F918F913F912F910F900FBE0F901F90DC
:100A80001895AF92BF92DF92EF92FF920F931F9350
:100A9000CF93DF93EC017A018B01DD24403081EEAE
:100AA000580780E0680780E0780711F0DD24D394D0
:100AB00091E0A92EB12CEC89FD89DD2069F0C501FA
:100AC00008A002C0880F991F0A94E2F7808360E0B3
:100AD00079E08DE390E005C0108260E874E88EE173
:100AE00090E0A80197010E9420072150304040402B
:100AF0005040569547953795279580E12030380727
:100B000020F0DD2011F0DD24D6CFE889F98930838B
:100B1000EA89FB89208319A2EE89FF89408121E0BF
:100B200030E0C9010C8C02C0880F991F0A94E2F7CB
:100B3000482B4083EE89FF894081C9010D8C02C09A
:100B4000880F991F0A94E2F7482B4083EE89FF89AA
:100B50004081C9010E8C02C0880F991F0A94E2F7E8
:100B6000482B4083EE89FF8980810F8C02C0220FC1
:100B7000331F0A94E2F7209528232083DF91CF9139
:100B80001F910F91FF90EF90DF90BF90AF9008956D
:100B9000DC011C96ED91FC911D97E05CFF4F2191CB
:100BA000319180819181281B390B2F733070C901DD
:100BB0000895DC011C96ED91FC911D97E05CFF4FC0
:100BC00020813181E054F040DF01AE5BBF4F8D9159
:100BD0009C9111972817390719F42FEF3FEF07C0A1
:100BE0008D919C91E80FF91F8081282F30E0C90179
:100BF0000895DC011C96ED91FC911D97E05CFF4F80
:100C000020813181E054F040DF01AE5BBF4F8D9118
:100C10009C9111972817390719F42FEF3FEF10C057
:100C20008D919C911197E80FF91F20818D919C91D6
:100C3000119701968F73907011969C938E9330E06C
:100C4000C9010895DC0191968C919197882339F020
:100C50005496ED91FC915597808186FFF9CF91963E
:100C60001C920895CF93DF93EC01EE85FF85E05C45
:100C7000FF4F20813181E054F0402F5F3F4F2F73B1
:100C80003070DF01AE5BBF4F8D919C91119728179B
:100C90003907D1F3E05CFF4F80819181E054F0404F
:100CA000E80FF91F6083EE85FF85E05CFF4F31831D
:100CB0002083EE89FF89208181E090E00F8C02C0C3
:100CC000880F991F0A94E2F7282B208381E089A3DB
:100CD000EC89FD8980818064808381E090E0DF91F0
:100CE000CF9108951092EF011092EE0188EE93E0FB
:100CF000A0E0B0E08093F0019093F101A093F201A5
:100D0000B093F3018AE391E09093ED018093EC01BD
:100D100084E691E09093F9018093F80188EA91E0EC
:100D20009093FB018093FA0185EC90E09093FD0194
:100D30008093FC0184EC90E09093FF018093FE018E
:100D400080EC90E0909301028093000281EC90E0AF
:100D5000909303028093020282EC90E0909305024C
:100D60008093040286EC90E0909307028093060241
:100D700084E08093080283E08093090287E08093F7
:100D80000A0285E080930B0281E080930C020895B3
:100D9000CF93DF930E9496030E94A000C3EFD4E09C
:100DA0000E94CE002097E1F30E94F304F9CFCF9286
:100DB000DF92EF92FF920F931F93CF93DF937C010B
:100DC0006B018A01C0E0D0E00FC0D6016D916D01CA
:100DD000D701ED91FC910190F081E02DC7010995BB
:100DE000C80FD91F015010400115110571F7CE0130
:100DF000DF91CF911F910F91FF90EF90DF90CF90F7
:100E00000895CF93DF93EC016115710519F420E08B
:100E100030E00FC0DB010D900020E9F71197A61B11
:100E2000B70BE881F9810280F381E02DAD010995CE
:100E30009C01C901DF91CF9108950E940107089597
:100E4000A1E21A2EAA1BBB1BFD010DC0AA1FBB1FCE
:100E5000EE1FFF1FA217B307E407F50720F0A21B40
:100E6000B30BE40BF50B661F771F881F991F1A94AD
:100E700069F760957095809590959B01AC01BD01D7
:100E8000CF010895EE0FFF1F0590F491E02D099416
:040E9000F894FFCF04
:100E9400425554544F4E2031202D3E2042756C62F1
:100EA4007300425554544F4E2032202D3E2046614B
:100EB4006E000400020000000000B101D70600002B
:100EC400400014005400000000003206D706C80594
:060ED400F905D905220614
:00000001FF
